{
  "contractName": "FoodSafe",
  "abi": [
    {
      "constant": false,
      "inputs": [],
      "name": "getTrail",
      "outputs": [
        {
          "name": "",
          "type": "uint8"
        }
      ],
      "payable": true,
      "stateMutability": "payable",
      "type": "function",
      "signature": "0xb9721449"
    },
    {
      "constant": false,
      "inputs": [
        {
          "name": "locationId",
          "type": "uint256"
        },
        {
          "name": "name",
          "type": "string"
        },
        {
          "name": "secret",
          "type": "string"
        }
      ],
      "name": "addLocation",
      "outputs": [],
      "payable": true,
      "stateMutability": "payable",
      "type": "function",
      "signature": "0xd44c4028"
    },
    {
      "constant": true,
      "inputs": [
        {
          "name": "TrailNo",
          "type": "uint8"
        }
      ],
      "name": "getLocation",
      "outputs": [
        {
          "name": "",
          "type": "string"
        },
        {
          "name": "",
          "type": "uint256"
        },
        {
          "name": "",
          "type": "uint256"
        },
        {
          "name": "",
          "type": "string"
        },
        {
          "name": "",
          "type": "uint256"
        }
      ],
      "payable": false,
      "stateMutability": "view",
      "type": "function",
      "signature": "0xc0d25cf8"
    }
  ],
  "bytecode": "0x60806040526000600160006101000a81548160ff021916908360ff16021790555034801561002c57600080fd5b5061072f8061003c6000396000f3fe608060405260043610610057576000357c0100000000000000000000000000000000000000000000000000000000900463ffffffff168063b97214491461005c578063c0d25cf814610080578063d44c4028146101b8575b600080fd5b610064610314565b604051808260ff1660ff16815260200191505060405180910390f35b34801561008c57600080fd5b506100bc600480360360208110156100a357600080fd5b81019080803560ff16906020019092919050505061032b565b604051808060200186815260200185815260200180602001848152602001838103835288818151815260200191508051906020019080838360005b838110156101125780820151818401526020810190506100f7565b50505050905090810190601f16801561013f5780820380516001836020036101000a031916815260200191505b50838103825285818151815260200191508051906020019080838360005b8381101561017857808201518184015260208101905061015d565b50505050905090810190601f1680156101a55780820380516001836020036101000a031916815260200191505b5097505050505050505060405180910390f35b610312600480360360608110156101ce57600080fd5b8101908080359060200190929190803590602001906401000000008111156101f557600080fd5b82018360208201111561020757600080fd5b8035906020019184600183028401116401000000008311171561022957600080fd5b91908080601f016020809104026020016040519081016040528093929190818152602001838380828437600081840152601f19601f8201169050808301925050505050505091929192908035906020019064010000000081111561028c57600080fd5b82018360208201111561029e57600080fd5b803590602001918460018302840111640100000000831117156102c057600080fd5b91908080601f016020809104026020016040519081016040528093929190818152602001838380828437600081840152601f19601f8201169050808301925050505050505091929192905050506104fa565b005b6000600160009054906101000a900460ff16905090565b6060600080606060008060008760ff1681526020019081526020016000206000016000808860ff168152602001908152602001600020600201546000808960ff168152602001908152602001600020600301546000808a60ff1681526020019081526020016000206001016000808b60ff16815260200190815260200160002060040154848054600181600116156101000203166002900480601f0160208091040260200160405190810160405280929190818152602001828054600181600116156101000203166002900480156104445780601f1061041957610100808354040283529160200191610444565b820191906000526020600020905b81548152906001019060200180831161042757829003601f168201915b50505050509450818054600181600116156101000203166002900480601f0160208091040260200160405190810160405280929190818152602001828054600181600116156101000203166002900480156104e05780601f106104b5576101008083540402835291602001916104e0565b820191906000526020600020905b8154815290600101906020018083116104c357829003601f168201915b505050505091509450945094509450945091939590929450565b61050261062e565b82816000018190525083816040018181525050818160200181905250428160800181815250506000600160009054906101000a900460ff1660ff1614151561057657600080600160009054906101000a900460ff1660ff168152602001908152602001600020600201548160600181815250505b80600080600160009054906101000a900460ff1660ff16815260200190815260200160002060008201518160000190805190602001906105b792919061065e565b5060208201518160010190805190602001906105d492919061065e565b506040820151816002015560608201518160030155608082015181600401559050506001600081819054906101000a900460ff168092919060010191906101000a81548160ff021916908360ff1602179055505050505050565b60a06040519081016040528060608152602001606081526020016000815260200160008152602001600081525090565b828054600181600116156101000203166002900490600052602060002090601f016020900481019282601f1061069f57805160ff19168380011785556106cd565b828001600101855582156106cd579182015b828111156106cc5782518255916020019190600101906106b1565b5b5090506106da91906106de565b5090565b61070091905b808211156106fc5760008160009055506001016106e4565b5090565b9056fea165627a7a7230582085eb699bb03376055aa67f4ba8c09680e15bceb32be24f8e383c2814bb65fcd90029",
  "source": "pragma solidity 0.5.0;\n\ncontract FoodSafe{\n\n    struct Location{\n        string name;\n        string secret;\n        uint locationId;\n        uint PreviousLocationId;\n        uint timestamp;\n\n    }\n    //trail of different location\n    mapping(uint => Location) Trail;\n    uint8 TrailCount =0;\n    //to retrieve the trail count\n    function getTrail() public payable returns  (uint8){\n        return TrailCount;\n    }\n\n    function addLocation(uint locationId, string memory name, string memory secret) public payable {\n        Location memory newLocation;\n        newLocation.name = name;\n        newLocation.locationId = locationId;\n        newLocation.secret = secret;\n        newLocation.timestamp = now;\n\n        if(TrailCount != 0){\n            newLocation.PreviousLocationId = Trail[TrailCount].locationId;\n\n        }\n        Trail[TrailCount] = newLocation;\n        TrailCount ++;\n    }\n\n    function getLocation(uint8 TrailNo) public view returns(string memory, uint, uint, string memory, uint){\n        return (Trail[TrailNo].name, Trail[TrailNo].locationId, Trail[TrailNo].PreviousLocationId, Trail[TrailNo].secret,Trail[TrailNo].timestamp);\n    }\n}",
  "sourcePath": "/home/akhil/Desktop/My_workspace/FoodSafe/contracts/FoodSafe.sol",
  "compiler": {
    "name": "solc",
    "version": "0.5.0+commit.1d4f565a.Emscripten.clang"
  },
  "schemaVersion": "3.0.1",
  "updatedAt": "2019-03-08T09:35:56.535Z",
  "devdoc": {
    "methods": {}
  },
  "userdoc": {
    "methods": {}
  }
}